347360000800RTALB17        0000020ALAB      NNBLACK2520160804NN20160930N0000RTALB17        NN
347360001000SKEYSP         0000001PJ        NNBLACK2520160804NN20160930N0000SKEYSP         NN
347360000600SN17           0000001NM        NNBLACK2520160804NN20160930N0000SN17           NN
34736000070017DDT          0000001TP        NNBLACK2520160804NN20160930N000017DDT          NN
347360001800209            000002010UPTRA   NNBLACK2520160804NN20160930N0000209            NN
347360001900209            000002010UPTRA   NNBLACK2520160804NN20160930N0000209            NN
347360001200209            000002010UPTRA   NNBLACK2520160804NN20160930N0000209            NN
347360002100521            0000020PN        NNBLACK2520160804NN20160930N0000521            NN
347360002000521            0000020PN        NNBLACK2520160804NN20160930N0000521            NN
347360001700521            0000020PN        NNBLACK2520160804NN20160930N0000521            NN
347360002200521C           0000020PM        NNBLACK2520160804NN20160930N0000521C           NN
347360002300521C           0000020PM        NNBLACK2520160804NN20160930N0000521C           NN
347360001500521C           0000020PM        NNBLACK2520160804NN20160930N0000521C           NN
347360002400701            000002010UPSWO   NNBLACK2520160804NN20160930N0000701            NN
347360001300701            000002010UPSWO   NNBLACK2520160804NN20160930N0000701            NN
347360002500701            000002010UPSWO   NNBLACK2520160804NN20160930N0000701            NN
347360002700706            000002010UPSWO   NNBLACK2520160804NN20160930N0000706            NN
347360002600706            000002010UPSWO   NNBLACK2520160804NN20160930N0000706            NN
347360001400706            000002010UPSWO   NNGOLD 2520160804NN20160930N0000706            NN
3473600016009531A          00000209531A     NNBLACK2520160804NN20160930N00009531PC         NN
3473600028009531A          00000209531A     NNBLACK2520160804NN20160930N00009531PC         NN
3473600029009531A          00000209531A     NNBLACK2520160804NN20160930N00009531PC         NN
3473600011009531CRT        0000001CERT      NNBLACK2520160804NN20160930N00009531CRT        NN
3473600030009531CRT        0000001CERT      NNBLACK2520160804NN20160930N00009531CRT        NN
3473600031009531CRT        0000001CERT      NNBLACK2520160804NN20160930N00009531CRT        NN
