347261300100SCGP3BK        0000001RASM      NNBLACK0120160722NN20160726N0000SCGP3BK        NN
347261500100SCG51BK        0000001RASM      NNBLACK0120160722NN20160725N0000SCG51BK        NN
347261600100SCGP1BK        0000001RASM      NNBLACK0120160722NN20160726N0000SCGP1BK        NN
