347259200100SRBC           0000250SRBC      NNBLACK0120160721NN20160729N0000SRBC           NN
347259300100SCG54BK        0000001RASM      NNBLACK0120160721NN20160726N0000SCG54BK        NN
347259500100SRBC           0000250SRBC      NNBLACK0120160721NN20160729N0000SRBC           NN
347259600100DENBC          0000250DENBC     NNBLACK0120160721NN20160727N0000DENBC          NN
