347260600100DENBC          0000250DENBC     NNBLACK0120160721NN20160727N0000DENBC          NN
347260700100DENBC2         0000500DENBC2    NNBLACK0120160721NN20160727N0000DENBC2         NN
347260800100SCG54BK        0000001RASM      NNBLACK0120160721NN20160725N0000SCG54BK        NN
