347087400100SCG54BK        0000001RASM      NNBLACK0120160623NN20160627N0000SCG54BK        NN
347087500100SCG61BK        0000001RASM      NNBLACK0120160623NN20160627N0000SCG61BK        NN
347087700100SCG54BK        0000001RASM      NNBLACK0120160623NN20160627N0000SCG54BK        NN
347087800100SRBC           0000250SRBC      NNBLACK0120160623NN20160630N0000SRBC           NN
347087900100DENBC2         0000250DENBC2    NNBLACK0120160623NN20160628N0000DENBC2         NN
347088000100SCG57BK        0000001RASM      NNBLACK0120160623NN20160627N0000SCG57BK        NN
347088100100SCGP1BK        0000001RASM      NNBLACK0120160623NN20160627N0000SCGP1BK        NN
347088200100SCG57BK        0000001RASM      NNBLACK0120160623NN20160627N0000SCG57BK        NN
347088300100SCG54BK        0000001RASM      NNBLACK0120160623NN20160627N0000SCG54BK        NN
347088400100SCG54BK        0000001RASM      NNBLACK0120160623NN20160627N0000SCG54BK        NN
347088600100TASDG          0000001RAST      NNBLACK0120160623NN20160627N0000GTASDG         NN
